:020000040800F2
:1000000000DB00200D02000855460008DD40000816
:1000100051460008890900084B64000800000000F0
:100020000000000000000000000000001D53000858
:1000300049360008000000000B490008015500087F
:1000400027020008C547000827020008794E00086B
:100050002702000827020008F53A0008253B00089F
:10006000513B00087D3B000827020008952E000840
:1000700027020008270200082702000827020008BC
:1000800027020008270200082702000827020008AC
:10009000270200082702000827020008270200089C
:1000A000270200082702000827020008270200088C
:1000B00065550008F9560008815700082702000816
:1000C000270200082702000827020008270200086C
:1000D0002702000891600008FD610008270200085F
:1000E000270200082702000827020008270200084C
:1000F000270200082702000827020008270200083C
:10010000270200082702000827020008270200082B
:10011000270200082702000827020008270200081B
:10012000270200082702000827020008270200080B
:1001300000F002F800F05AF80AA090E8000C82449F
:100140008344AAF10107DA4501D100F04FF8AFF27C
:10015000090EBAE80F0013F0010F18BFFB1A43F0A5
:10016000010318478CCA0000ACCA00000A444FF0D3
:10017000000C10F8013B13F0070408BF10F8014B06
:100180001D1108BF10F8015B641E05D010F8016B4B
:10019000641E01F8016BF9D113F0080F1EBF10F8AF
:1001A000014BAD1C0C1B09D16D1E58BF01F801CBD2
:1001B000FAD505E014F8016B01F8016B6D1EF9D555
:1001C0009142D6D37047000000230024002500266A
:1001D000103A28BF78C1FBD8520728BF30C148BFAA
:1001E0000B6070471FB51FBD10B510BD00F0E2F8E1
:1001F0001146FFF7F7FF08F093F900F000F903B498
:10020000FFF7F2FF03BC00F001F900000948804746
:1002100009480047FEE7FEE7FEE7FEE7FEE7FEE7E8
:10022000FEE7FEE7FEE7FEE704480549054A064B00
:1002300070470000055500083101000800D5002076
:1002400000DB002000D7002000D70020032A40F266
:10025000308010F0030C00F0158011F8013BBCF168
:10026000020F624498BF11F801CB00F8013B38BF80
:1002700011F8013BA2F1040298BF00F801CB38BF8E
:1002800000F8013B11F0030300F02580083AC0F0AC
:10029000088051F8043B083A51F804CBA0E8081054
:1002A000F5E7121D5CBF51F8043B40F8043BAFF387
:1002B0000080D20724BF11F8013B11F801CB48BFE1
:1002C00011F8012B24BF00F8013B00F801CB48BF17
:1002D00000F8012B704710B5203AC0F00B80B1E850
:1002E0001850203AA0E81850B1E81850A0E818506B
:1002F000BFF4F5AF5FEA027C24BFB1E81850A0E874
:10030000185044BF18C918C0BDE810405FEA827C8D
:1003100024BF51F8043B40F8043B08BF7047D207A4
:1003200028BF31F8023B48BF11F8012B28BF20F845
:10033000023B48BF00F8012B70474FF0000200B5A8
:10034000134694469646203922BFA0E80C50A0E8F8
:100350000C50B1F12001BFF4F7AF090728BFA0E8A6
:100360000C5048BF0CC05DF804EB890028BF40F872
:10037000042B08BF704748BF20F8022B11F0804FB4
:1003800018BF00F8012B704770477047704710B5D1
:1003900000F008F8006810BD10B5044600F002F83F
:1003A000046010BD00487047A0D40020004870478A
:1003B000A0D400207546FFF7F9FFAE460500694658
:1003C000534620F00700854618B020B5FFF72CFFF4
:1003D000BDE820404FF000064FF000074FF0000846
:1003E0004FF0000B21F00701AC46ACE8C009ACE8C7
:1003F000C009ACE8C009ACE8C0098D4670470446A6
:10040000AFF300802046FFF7FAFE7047014918203D
:10041000ABBEFEE72600020021B1826842F0010275
:10042000826003E0826822F001028260704721B19D
:10043000826842F48072826003E0826822F48072F3
:100440008260704721B1826842F48012826003E0CA
:10045000826822F4801282607047014600208A6818
:1004600002F004020AB1012000E0002070470146BA
:1004700000208A6802F008020AB1012000E0002092
:100480007047000030B502460020002350680F4C32
:1004900020400D790C6844EA0524204350609068A0
:1004A0000B4C2040D1E902542C434D7944EA4504D9
:1004B00020439060D06A20F470000C7C641EE4B28B
:1004C000234340EA0350D06230BD0000FFFEF0FF3E
:1004D000FDF7F1FFF0B504460D4600200021092D7F
:1004E00011DDE068A5F10A0606EB4607072606FAC5
:1004F00007F18843A5F10A0606EB460603FA06F162
:100500000843E0600CE0206905EB4507072606FA82
:1005100007F1884305EB450603FA06F1084320611D
:10052000072A0FDA606B561E06EB86071F2606FAAF
:1005300007F18843561E06EB860605FA06F10843C6
:10054000606322E00D2A0FDA206BD61F06EB8607C8
:100550001F2606FA07F18843D61F06EB860605FA22
:1005600006F10843206310E0E06AA2F10D0606EBF5
:1005700086071F2606FA07F18843A2F10D0606EB4F
:10058000860605FA06F10843E062F0BD816841F095
:10059000080181607047816841F004018160704703
:1005A00010B503F0C5FD10BD70B506460C461546E6
:1005B00008E03046721C96B200F007F804F8010B10
:1005C000681E85B2002DF4D170BD70B504460026BA
:1005D00003F062FE2546E11704EB11610912A02227
:1005E00002EB4101C8B203F01DFE03F0A1FEE117CA
:1005F00004EB11610912A4EB0121C8B203F012FE51
:1006000003F096FE03F048FEA12003F00BFE03F07A
:100610008FFE002003F0CEFD064603F063FE304659
:1006200070BD70B505460C46164606E02178284692
:1006300000F009F8681C85B2641C3000A6F10101C5
:100640008EB2F3D170BD70B504460E4603F024FEA1
:100650002546E11704EB11610912A02202EB4101CA
:10066000C8B203F0DFFD03F063FEE11704EB116194
:100670000912A4EB0121C8B203F0D4FD03F058FE27
:10068000304603F0CFFD03F053FE03F02BFE0A20AB
:1006900007F0ACFD70BD000010B504F093F903F055
:1006A0004BFC03F0E8FF42F2107005F0F7FA5448F3
:1006B00002F09CFD534854490860544848600020AB
:1006C00088600A20C86000200861802048614000DE
:1006D00088618000C8612020086200024862002012
:1006E0008862474802F047FE0121454802F072FD4A
:1006F00001220221424802F035FE002044490860F0
:1007000001200871002048718860C8600A200874C0
:100710003C484C38FFF7B6FE062301220021394839
:100720004C38FFF7D7FE06230222012135484C380A
:10073000FFF7D0FE06230322042132484C38FFF78E
:10074000C9FE0623042205212E484C38FFF7C2FEBD
:100750000623052219462B484C38FFF7BBFE06231B
:100760001A46072127484C38FFF7B4FE0623072214
:100770000A2124484C38FFF7ADFE062308220B213E
:1007800020484C38FFF7A6FE062309220C211D48FD
:100790004C38FFF79FFE06230A220D2119484C38DA
:1007A000FFF798FE012117484C38FFF740FE012162
:1007B00014484C38FFF730FE012112484C38FFF73F
:1007C00041FE10484C38FFF7E1FE00BF0D484C38A1
:1007D000FFF74DFE0028F9D10A484C38FFF7DBFE41
:1007E00000BF08484C38FFF738FE0028F9D1012136
:1007F000084805F046FA0121064805F07FFA10BDC9
:10080000080002404C2401400CD100207802002056
:10081000F8D00020002C014070B5002400260025EF
:100820002C492D4804F0E6F9002852D029480088C8
:1008300009284EDB00BF11E02749601C095C2648EF
:10084000005D01EB00204AF65521884201D006B92F
:1008500002E00126254606E0601C84B21D4800889F
:10086000401EA042E8DC00BF85B11A480088401B4A
:1008700018490880002405E060191749085C0855EC
:10088000601C84B2134800888442F5DB114800885C
:1008900009281EDB10484178007801EB00204AF659
:1008A0005521884215D10B480088401E0A49095C31
:1008B00008480088801E084A105C01EB00204CF6B6
:1008C0003341884205D11146044805F094FD03F0F8
:1008D00041FA70BD5A02002098D3002064D2002053
:1008E0000348008840F0010001490880704700007B
:1008F000346C004010B5012004F054F8002004F0DE
:1009000051F810BD10B501214FF0C05004F01AF895
:10091000012003F067FFFFF7E3FF7B2004F0CCF832
:1009200008B104F045F803F0B5F903F094FEE020B7
:1009300003F0A2FF012003F099FF042000F008F863
:1009400045F25001884201D103F068FF10BD00005C
:1009500008B5014600200090034800900098084424
:1009600000900098008808BD006C004008B5002287
:100970000092044A0092009A02440092009A116088
:1009800008BD0000006C004000BFFEE7BF480078D3
:1009900063286ED1BE48007864380B286AD2DFE83D
:1009A00000F0060714243040505C6A85B400CEE0A5
:1009B0001920B84908800120B74908706420B4495B
:1009C00008700020B5490870C1E01920B1490880BD
:1009D0000120B1490870B2490870B2480078B249A4
:1009E00008706520AA490870B1E01920A94908805B
:1009F0000120A9490870AA4908706520A449087017
:100A0000A5E01920A34908800120A3490870A44942
:100A10000870A6480078A649087065209C490870AF
:100A200095E019209B49088001209B4908709C494A
:100A30000870A0480078A0490870652094490870A3
:100A400085E0192093490880012093490870944952
:100A5000087065208E49087079E019208D4908805A
:100A600001208D4908708E4908706A2088490870F5
:100A70006DE06DE06AE01920864908800120864912
:100A80000870874908708D48007818B16520804942
:100A900008700AE001208949087000208849087020
:100AA0008849087001208849087050E0874800781C
:100AB00020B1012811D0022824D10FE01920754956
:100AC0000880012074490870754908700020804929
:100AD000087065206E49087015E000BF19206D4947
:100AE000088001206C490870002079490870774916
:100AF0000870784800687849086078480068784944
:100B0000086000E000BF00BF21E0192061490880B3
:100B10007448007850B900207349087001205E497C
:100B200008705F4908706620594908706D48007860
:100B300001280AD100206C4908700120564908702C
:100B40005749087067205249087000E000BF9CE0D8
:100B50004E480078C728FAD14D480078C838082890
:100B60007ED2DFE800F00405121E2A3651818BE0A8
:100B7000192048490880012047490870C820444985
:100B800008700020594908707EE01920414908800A
:100B900001204149087042490870C9203C49087049
:100BA00072E019203B49088001203B4908703C490C
:100BB0000870C9203649087066E019203549088058
:100BC00001203549087036490870C920304908703D
:100BD0005AE019202F49088001202F490870304918
:100BE00008703648007818B1C920294908700AE011
:100BF00001203249087000203D4908703D490870C5
:100C00000120314908703FE03B48007820B10128BD
:100C100011D0022825D10FE019201E49088001209B
:100C20001D4908701E490870002029490870C92014
:100C30001749087016E000BF1920164908800120E6
:100C4000154908700020224908702B490870214876
:100C5000006821490860214800682149086001E0D6
:100C600011E000BF00BF0FE019200A4908800020F2
:100C70001D49087001200849087009490870CA20F8
:100C80000349087000E000BF00BF7047C1000020AA
:100C9000C0000020A6000020A30000208A00002041
:100CA000A4000020160000208C000020140000206A
:100CB0008E000020150000208F00002096000020EC
:100CC000920000209400002069000020970000207E
:100CD0009800002028000020B80000202C000020F0
:100CE000BC0000208B000020AA0000209B000020F8
:100CF0009F000020A1000020A20000202DE9FC5F41
:100D0000FD48007863287BD1FC48007864380B28C4
:100D100077D2DFE800F006182D3F5163777879F23B
:100D2000F1001920F64908800120F6490870F648BC
:100D30000078401CF449087008460078062801D164
:100D4000002008703DE21920ED4908800120EF499C
:100D50000870EF480078401CED490870084600789C
:100D6000072804D1002008700120E649087028E215
:100D70001920E34908800120E4490870E54800781B
:100D8000401CE449087008460078022801D1002080
:100D9000087016E21920DA4908800120DB49087042
:100DA000DD480078401CDC490870084600780228BD
:100DB00001D10020087004E21920D14908800120E7
:100DC000D2490870D5480078401CD44908700846BC
:100DD0000078042801D100200870F2E11920C849E8
:100DE00008800120C9490870CD480078401CCC49D2
:100DF000087008460078022801D100200870E0E160
:100E0000E0E1DDE1DDE1DCE11920BD490880C54814
:100E10000078002872D1C448007810B101286ED142
:100E20000EE00120B9490870C0480078401CBF4955
:100E3000087008460078072801D1002008707FE07C
:100E4000BA480078072877D2DFE800F00414214977
:100E50005A677500B648008840F2E171884203DCA9
:100E600040F63400B2490880B1480088401EB049BD
:100E7000088062E0AF480078012802DC0D20AD490F
:100E80000870AC480078401EAA49087055E0A84890
:100E9000008803F06DFB80B1A648007802280CD1D1
:100EA000A5480078012802DC1E20A3490870A2484A
:100EB0000078401EA04908703FE09F480078012854
:100EC00007DC9C480078401E9C49085C401C9A49FD
:100ED000087099480078401E974908702DE098489E
:100EE0000078002802DC18209549087094480078A2
:100EF000401E9349087020E053E123E021E01EE00A
:100F000090480078002802DC3C208E4908708D480B
:100F10000078401E8B4908700FE08B48007800284D
:100F200002DC3C208849087087480078401E8649CA
:100F3000087002E000E000E000BF00BF00E000BF7A
:100F400000BF3EE119206E4908808048007820B13A
:100F5000012851D002287DD15DE001206949087047
:100F60007B480078401C7A490870084600780528BC
:100F700001D10020087076480078052831D2DFE8DA
:100F800000F0030C151E27007248006872490860C3
:100F9000724800687249086024E0724800686E492F
:100FA0000860714800686E4908601BE06F4800687F
:100FB000694908606E4800686949086012E06D4838
:100FC0000068654908606C4800686549086009E088
:100FD0006A480068604908606948006860490860BC
:100FE00000E000BF00BF5C480068664908605C48DC
:100FF000006865490860D2E00120444908706348F0
:101000000078401C6149087008460078092801D121
:1010100000200870C3E05D48007808286AD05C486A
:101020005A490978405C002804DC0A205849574A8C
:1010300012788854564855490978405C401EC1B220
:101040005348524A127881540146497864225143E8
:10105000024600E0A2E0927802EB820201EB42013C
:101060000246D27888180AF04EFD80460022494B8D
:101070000AF0B0FD0022484BCDE900010AF08EFBDA
:1010800004460D46424908780AF054FD06462246B9
:101090002B460AF0C7FA82460AF092FA2E490860F7
:1010A0003B49497964225143394A927902EB8202E1
:1010B00001EB4201364AD27988180AF024FD8246B3
:1010C0000022344B0AF086FD80460022324B0AF0A3
:1010D00065FB04460D462E4908790AF02BFD0646AD
:1010E00022462B460AF09EFACDE900010AF068FA82
:1010F0001B49086053E00000C1000020C000002030
:10110000A6000020A30000208A000020A4000020E8
:101110008B0000208C0000208D0000208E0000201D
:101120008F000020960000209400002092000020F4
:10113000AE000020B0000020B10000200ACA000864
:10114000B2000020B3000020B4000020970000206F
:1011500093000020C4000020B8000020C800002038
:10116000BC000020CC000020D0000020D4000020D3
:10117000D8000020DC000020E0000020E400002077
:10118000E8000020280000202C000020980000200B
:10119000170000200000F03F00408F4000BF00BF5C
:1011A0000FE01920F2490880F248007808B90120C0
:1011B00000E00020EF4908700120EF49087000E0CE
:1011C00000BFD2E1ED480078C728FAD1EC4800789A
:1011D000C838082873D2DFE800F00416283A3B3CF0
:1011E000D9F71920E24908800120E6490870E6484D
:1011F0000078401CE449087008460078062801D1B0
:1012000000200870B0E11920D94908800120DA498E
:101210000870DE480078401CDC49087008460078F9
:10122000052801D1002008709EE11920D0490880CE
:101230000120D1490870D6480078401CD449087074
:1012400008460078022801D1002008708CE18BE16B
:101250008AE11920C6490880CE480078002871D15B
:10126000CD48007810B101286DD10EE00120C249AF
:101270000870CA480078401CC849087008460078C1
:10128000072801D1002008707EE0C44800780728B4
:1012900076D2DFE800F00415224A59667400C0488F
:1012A000008840F2E171884203DC40F63400BC491A
:1012B0000880BB480088401EB949088061E052E1BF
:1012C000B8480078012802DC0D20B6490870B548FE
:1012D0000078401EB349087053E0B148008803F01D
:1012E00047F980B1AF48007802280CD1AE480078A9
:1012F000012802DC1E20AC490870AB480078401E73
:10130000A94908703DE0A8480078012807DCA548F5
:101310000078401EA549085C401CA3490870A248FB
:101320000078401EA04908702BE0A14800780028F2
:1013300002DC18209E4908709D480078401E9C4998
:1013400008701EE021E01EE09A480078002802DCC8
:101350003C209849087097480078401E95490870CD
:101360000FE095480078002802DC3C209249087084
:1013700091480078401E9049087002E000E000E0CB
:1013800000BF00BF00E000BF00BFEDE019207849BA
:1013900008808A48007820B1012853D002287DD1E6
:1013A0005FE001207749087085480078401C844937
:1013B000087008460078052801D100200870804890
:1013C0000078052833D200E0BEE0DFE800F0030C2F
:1013D000151E27007B4800687B4908607B48006831
:1013E0007B49086024E07B480068774908607A48B8
:1013F0000068774908601BE0784800687249086017
:10140000774800687249086012E0764800686E49C3
:101410000860754800686E49086009E07348006814
:1014200069490860724800686949086000E000BFC7
:1014300000BF654800686F490860654800686E49EC
:1014400008607FE001204C4908706C480078401C1F
:101450006A49087008460078092801D10020087000
:1014600070E06648007808286AD0654863490978C2
:10147000405C002804DC0A206149604A12788854E4
:101480005F485E490978405C401EC1B25C485B4AD7
:101490001278815401464978642200E051E05143BA
:1014A0000246927802EB820201EB42010246D278B8
:1014B00088180AF028FB82460022524B0AF08AFB69
:1014C00006460022504B0AF069F9804689464C498D
:1014D00008780AF02FFB044642464B460AF0A2F871
:1014E000CDE900010AF06CF83749086044494979B0
:1014F00064225143424A927902EB820201EB42019B
:101500003F4AD27988180AF0FEFA064600223D4B7F
:101510000AF060FB044600223B4B0AF03FF980468C
:101520008946374908790AF005FB824642464B4610
:101530000AF078F8CDE900010AF042F82449086081
:1015400000E000BF00BF0FE01920094908800948EA
:10155000007808B9012000E0002006490870012049
:101560000549087000E000BF00BFBDE8FC9F000017
:10157000A6000020AA000020A4000020C100002036
:10158000C0000020A30000209B0000209C00002041
:101590009D00002096000020A10000209F00002058
:1015A000AE000020B0000020B10000200ACA0008F0
:1015B000B2000020B3000020B4000020A2000020F0
:1015C000A0000020C4000020B8000020C8000020B7
:1015D000BC000020CC000020D0000020D40000205F
:1015E000D8000020DC000020E0000020E400002003
:1015F000E8000020280000202C0000209800002097
:10160000170000200000F03F00408F402DE9FC5FF4
:10161000F9480078632870D1F848007864380B28BE
:101620006CD2DFE800F006156F7E90A8BFD3DFFE16
:10163000FD001920F24908800120F2490870F249A2
:1016400008700020F14908706520EC49087095E3A6
:101650001920EB4908800120EA490870EA4908701E
:10166000EA48007807284AD2DFE800F0040C131B90
:1016700023272E006620E1490870E5480078E549F7
:1016800008703DE06720DD4908700020E2490870DD
:1016900036E0E2480078E24908706820D7490870CF
:1016A0002EE0E0480078E04908706920D3490870CE
:1016B00026E06A20D149087022E06C20CF490870EA
:1016C0000120DA4908701BE06D20CC490870002029
:1016D000D7490870D7490870D7480068D7490860CB
:1016E000D7480068D7490860D4480068D6490860E0
:1016F000D4480068D549086002E040E33DE300BFFC
:1017000000BF3BE31920BE4908800120BD49087095
:10171000BD4908700020CE4908706E20B749087096
:101720002CE3BD48007868B11920B5490880012034
:10173000B4490870B44908700020C54908706E208B
:10174000AE4908701AE31920AD4908800120AD495F
:101750000870AD4908706520A84908706420FEF73C
:1017600034FFAE490978884204D0AC48017864203F
:10177000FEF769FF02E31920A14908800120A14971
:101780000870A149087065209C490870FEF71DFF8C
:10179000A4490978884204D0A24801786520FEF760
:1017A00052FFEBE219209649088001209549087004
:1017B00095490870A7480078102803D16B208F49FD
:1017C000087002E065208D490870D7E219208C4925
:1017D000088001208B4908708B4908706A2087496E
:1017E0000870CBE21920864908809B48007830B306
:1017F00001208449087084490870002096490870C7
:101800009648808896490880944880799549087060
:101810009248C0799449087090480078934901E053
:101820005FE243E008708D484078914908708B482A
:1018300080789049087001207349087035E00120D4
:10184000714908708C48007806281ED100208A490A
:1018500008708848007886490978CDE900108348E7
:101860000378814802787F4801787D48008803F03A
:101870009BFB0120784908700020804908700120F6
:10188000604908706949087078E27C48007810B1B6
:10189000012808D103E001207849087004E0002005
:1018A0007649087000E000BF00BF67E21920544984
:1018B00008805F48007820B101287DD002287CD1C3
:1018C00006E201204F4908704F49087000206C491A
:1018D00008700120564908706A49584800680AF0A3
:1018E00099FE04460AF016FE80B24FF47A7190FB1E
:1018F000F1F0654908706349504800680AF08AFEB3
:1019000004460AF007FE80B24FF47A7190FBF1F2C0
:1019100001FB1200642190FBF1F05B4948705949CA
:10192000464800680AF076FE04460AF0F3FD80B2ED
:10193000642190FBF1F201FB12000A2190FBF1F00F
:10194000514988704F493D4800680AF063FE0446DB
:101950000AF0E0FD80B20A2190FBF1F201FB1200D7
:101960004949C8704749374800680AF053FE0446A1
:101970000AF0D0FD80B24FF47A7190FBF1F0424949
:10198000087140492F4800680AF044FE04460AF0F6
:10199000C1FD80B24FF47A7190FBF1F201FB1200AD
:1019A000642190FBF1F038494871364925480068B8
:1019B0000AF030FE044601E068E08FE10AF0AAFD7B
:1019C00080B2642190FBF1F201FB12000A2190FB2E
:1019D000F1F02D4988712B491A4800680AF01AFE67
:1019E00004460AF097FD80B20A2190FBF1F201FB58
:1019F00012002549C87172E1C1000020C00000201A
:101A0000A6000020A3000020A40000208B000020DE
:101A10008C000020160000208D0000208E00002089
:101A2000140000208F000020150000206900002015
:101A30009700002093000020C4000020B800002080
:101A4000C8000020BC000020280000202C0000203E
:101A5000AA000020900000209600002052D1002013
:101A6000AE000020B0000020B1000020B200002035
:101A7000B3000020B4000020920000209400002059
:101A80009800002000007A44170000201920F64931
:101A900008800120F5490870F548007808287CDBAB
:101AA0000120F44908700020F1490870F2490870DB
:101AB000F249497864225143F04A927802EB82025B
:101AC00001EB4201ED4AD27888180AF01CF88046F2
:101AD0000022EB4B0AF07EF806460022E94B09F0A3
:101AE0005DFECDE90001E54908780AF023F80446D7
:101AF000DDE9002309F096FD824609F061FDE24927
:101B00000860DE49497964225143DC4A927902EB4C
:101B1000820201EB4201D94AD279881809F0F3FF19
:101B20000022D74BCDE900010AF054F80646002206
:101B3000D44B09F033FE04460D46D049087909F02C
:101B4000F9FF804622462B4609F06CFD824609F0DB
:101B500037FDCE490860CC4800680AF04BFB0446CC
:101B60000022CB4B0AF034F902D2CA48C6490860B9
:101B7000C54800680AF03EFB0446C74AC74B09F057
:101B8000EDFF02D8C648C0490860C04800680AF0A6
:101B900031FB04460022BE4B00E095E00AF018F944
:101BA00002D2BC48B9490860B84800680AF022FB74
:101BB0000446B94AB94B09F0D1FF02D8B848B34935
:101BC0000860B8480078052831D2DFE800F0030C3F
:101BD000151E2700AC480068B3490860AB48006890
:101BE000B249086024E0A8480068B1490860A748E5
:101BF0000068B04908601BE0A3480068AE4908606F
:101C0000A2480068AD49086012E09F480068AC49EE
:101C100008609E480068AB49086009E09A4800687F
:101C2000A949086099480068A849086000E000BF19
:101C300000BF9C490978490001EB4101481C03227F
:101C4000A349FEF7B1FC97490978490001EB41012E
:101C5000081D03229F49FEF7A7FC03219C4801F0C1
:101C60009DF804468848016820460AF01FFC0FD002
:101C7000032297498448006802F0E8F88949097806
:101C8000490001EB4101481C03229149FEF7C9FCC0
:101C90000321904801F082F804467C480168204600
:101CA0000AF004FC13D003228A497848006802F045
:101CB000CDF87C490978490001EB4101081D032258
:101CC0008449FEF7AEFC02E002206B49087006E092
:101CD0000120664908706849087000E000BF00BF35
:101CE0004CE01920604908807B48007818BB7B488D
:101CF0000078C0B100207949087001205D49087062
:101D00005A4908706620764908707648007810B9FC
:101D1000AA2006F0B7FA7348007801280BD1A52055
:101D200006F0B0FA07E00120524908704F490870E8
:101D300066206B4908706848007801281CD1674804
:101D4000007888B100206549087001204949087071
:101D5000C72065490870C8206149087000206349A0
:101D6000087003F0C9F907E00120424908703F49B3
:101D7000087067205A49087000E000BF7DE35A48A8
:101D80000078C728FAD156480078C83808286AD29F
:101D9000DFE800F004135668BCBDFDFC1920324991
:101DA00008800120334908703049087000205049EC
:101DB0000870C9204A4908705EE319202A49088042
:101DC00001202C49087029490870494800780528E5
:101DD00033D2DFE800F0030A0E121900CA2040498E
:101DE000087001204349087028E0CB203C49087066
:101DF00024E0CC203A49087020E0CD203849087012
:101E000001203D49087019E0CE20354908700020B6
:101E10003A4908703A490870234800681A4908602E
:101E20002248006819490860174800683549086069
:101E3000164800683449086000E000BF00BF1BE39B
:101E40002C48007868B91920074908800120094901
:101E5000087006490870002020490870CF202049EA
:101E6000087009E308E306E3A6000020A4000020B0
:101E700098000020A30000209700002017000020F9
:101E80000000F03F00408F40B8000020BC00002060
:101E9000000014400000A040FCA9F1D24D62503F68
:101EA0006F12833A93000020C4000020C800002075
:101EB000CC000020D0000020D4000020D80000205A
:101EC000DC000020E0000020E4000020E80000200A
:101ED0001F000020220000208B000020AA0000200C
:101EE000C00000208C000020C10000209B000020CA
:101EF0009C0000209D00002069000020A20000201E
:101F0000A0000020280000202C000020B4E21920AE
:101F1000FE490880FE48007818B30120FD4908708A
:101F2000FD4908700020FA490870FC488088FC4987
:101F30000880FA488079FB490870F848C079FA4966
:101F40000870F6480078F9490870F4484078F84974
:101F50000870F2488078F74908700120EE4908704F
:101F600038E00120EC490870F3480078062821D1B8
:101F70000020F1490870EF480078ED490978CDE973
:101F80000010EA480378E848027801E04AE222E0DB
:101F9000E4480178E248008803F006F80120DC49B3
:101FA00008700020E54908700120DA490870E4490A
:101FB000087061E2E148007810B1012808D103E01F
:101FC0000120DE49087004E00020DC49087000E0D0
:101FD00000BF00BF50E21920CC490880D9480078E2
:101FE00020B101287DD002287CD112E20120C9490C
:101FF0000870C94908700020D34908700120D149F0
:102000000870D249D24800680AF004FB04460AF07E
:1020100081FA80B24FF47A7190FBF1F0CD490870EB
:10202000CA49CB4800680AF0F5FA04460AF072FA89
:1020300080B24FF47A7190FBF1F201FB120064213F
:1020400090FBF1F0C3494870C049C14800680AF0EC
:10205000E1FA04460AF05EFA80B2642190FBF1F2E4
:1020600001FB12000A2190FBF1F0BA498870B749D0
:10207000B74800680AF0CEFA04460AF04BFA80B27C
:102080000A2190FBF1F201FB1200B249C870AF497E
:10209000B14800680AF0BEFA04460AF03BFA80B282
:1020A0004FF47A7190FBF1F0AA490871A749AA4848
:1020B00000680AF0AFFA04460AF02CFA80B24FF436
:1020C0007A7190FBF1F201FB1200642190FBF1F0B8
:1020D000A04948719D49A04800680AF09BFA04464F
:1020E00001E01EE09BE10AF015FA80B2642190FB4A
:1020F000F1F201FB12000A2190FBF1F09549887181
:102100009249954800680AF085FA04460AF002FAF6
:1021100080B20A2190FBF1F201FB12008D49C871D7
:102120007EE119207949088001207B4908708648A2
:10213000007808287DDB012076490870002082495C
:102140000870804908708349497864225143814A64
:10215000927802EB820201EB42017E4AD278881823
:1021600009F0D1FC064600227C4B09F033FD804685
:1021700000227B4B09F012FB04460D467549087896
:1021800009F0D8FC824622462B4609F04BFACDE9ED
:10219000000109F015FA6E4908606E494979642218
:1021A00051436C4A927902EB820201EB4201694A87
:1021B000D279881809F0A7FC82460022674B09F003
:1021C00009FD80460022664B09F0E8FA04460D46F8
:1021D0006049087909F0AEFC064622462B4609F014
:1021E00021FACDE9000109F0EBF95B490860584894
:1021F000006809F0FFFF044600225A4B09F0E8FD91
:1022000002D25948524908605148006809F0F2FF6B
:102210000446564A564B09F0A1FC02D855484C4991
:1022200008604D48006809F0E5FF044600224D4B68
:1022300000E0EAE009F0CCFD02D24B4846490860D4
:102240004548006809F0D6FF0446484A484B09F063
:1022500085FC02D84748404908604748007805286F
:1022600031D2DFE800F0030C151E27003848006863
:1022700042490860384800684149086024E0344811
:10228000006840490860344800683F4908601BE026
:102290002F4800683D4908602F4800683C490860A5
:1022A00012E02B4800683B4908602B4800683A4917
:1022B000086009E026480068384908602648006838
:1022C0003749086000E000BF00BF2B49097849008A
:1022D00001EB410101F1330003223249FEF764F9B9
:1022E00025490978490001EB410101F1360003223B
:1022F0002D49FEF759F903212A4800F04FFD044605
:102300001348016820460AF0D1F84FE0A6000020EB
:1023100096000020A3000020A400002052D100203D
:10232000AE000020B0000020B1000020B20000206C
:10233000B3000020B40000209F000020A100002076
:1023400069000020A20000209800002000007A44CC
:10235000B800002017000020BC0000200000F03F63
:1023600000408F40000014400000A040FCA9F1D2C2
:102370004D62503F6F12833AA0000020C40000203D
:10238000C8000020CC000020D0000020D400002095
:10239000D8000020DC000020E0000020E400002045
:1023A000E80000201F0000202200002010D003229F
:1023B00033493448006801F049FD33490978490040
:1023C00001EB410101F1330003222D49FEF729F908
:1023D00003212E4800F0E2FC04462D480168204607
:1023E0000AF064F814D0032228492948006801F053
:1023F0002DFD25490978490001EB410101F1360025
:1024000003222249FEF70DF902E00220214908705B
:1024100006E00120204908701E49087000E000BF56
:1024200000BF29E019201D4908801D480078C8B167
:1024300000201B49087001201A49087063201A49BE
:1024400008706420194908700121194803F019FC2B
:102450000121184803F0F2FE00201749087002F02D
:102460004BFE07E001200F4908700B490870CA2095
:102470000E49087000E000BF00BFBDE8FC9F0000EF
:102480001F000020B8000020A00000202200002033
:10249000BC000020A2000020A4000020A600002014
:1024A000AA000020A3000020C1000020C0000020DE
:1024B00000080040003801408A0000202DE9FC5F40
:1024C000F748007863287BD1F648007864380B28F9
:1024D00077D2DFE800F006182D3F5163777879F75F
:1024E000F6001920F04908800120F0490870F048F2
:1024F000007810B90620EE490870ED480078401EBB
:10250000EB49087031E21920E74908800120E949C8
:102510000870E948007828B90720E74908700120C9
:10252000E2490870E4480078401EE34908701CE264
:102530001920DD4908800120DE490870DF48007855
:1025400010B90220DD490870DC480078401EDB49E4
:1025500008700AE21920D44908800120D549087082
:10256000D748007810B90220D5490870D4480078BF
:10257000401ED3490870F8E11920CB49088001209A
:10258000CC490870CF48007810B90420CD490870B4
:10259000CC480078401ECB490870E6E11920C249BA
:1025A00008800120C3490870C748007810B902208C
:1025B000C5490870C4480078401EC3490870D4E17A
:1025C000D4E1D1E1D1E1D0E11920B7490880BF4879
:1025D0000078002877D1BE48007810B1012873D167
:1025E0000EE00120B3490870BA48007810B90720FE
:1025F000B8490870B7480078401EB649087075E0C1
:10260000B448007807286DD2DFE800F004142043B6
:102610004F5F6B00B0480088401CAF4908800846F7
:10262000008840F63401884203DB40F2E170AA4999
:10263000088058E0A9480078401CA849087008465E
:1026400000780D2801DB012008704CE0A4480078D8
:10265000401CA3490870A048008801F089FF58B1C8
:102660009E480078022807D19D4800781D2802DB8B
:1026700001209B49087036E098480078401E99492F
:10268000085C97490978884202DC01209449087067
:1026900029E095480078401C934908700846007866
:1026A000182801DB002008701DE090480078401CCD
:1026B0008E490870084600783C2801DB002008702D
:1026C00011E042E114E012E00FE089480078401C7C
:1026D00087490870084600783C2801DB0020087014
:1026E00001E000E000BF00BF00E000BF00BF3CE130
:1026F00019206D4908807F48007820B1012851D009
:1027000002287DD15DE00120684908707A48007890
:1027100010B905207849087077480078401E76493E
:10272000087008460078052831D2DFE800F0030C75
:10273000151E2700714800687149086071480068DB
:102740007149086024E0714800686D49086070486C
:1027500000686D4908601BE06E48006868490860C1
:102760006D4800686849086012E06C480068644978
:1027700008606B4800686449086009E069480068BF
:102780005F490860684800685F49086000E000BF72
:1027900000BF5B480068654908605B4800686449A1
:1027A0000860D0E00120434908706248007810B901
:1027B0000920604908705F480078401E5D49087034
:1027C000C1E05C480078082869D05B48594909781D
:1027D000405C401C5849574A12788854084655496D
:1027E0000978405C0A2804DB00215348514A1278DA
:1027F000815451494978642251434F4A927800E00C
:10280000A0E002EB820201EB42014B4AD278881829
:1028100009F079F980460022484B09F0DBF90022E3
:10282000474BCDE9000108F0B9FF04460D46424987
:10283000087809F07FF9064622462B4608F0F2FE9A
:10284000824608F0BDFE2E4908603B494979642262
:102850005143394A927902EB820201EB4201364A36
:10286000D279881809F04FF982460022334B09F0DB
:10287000B1F980460022324B08F090FF04460D4625
:102880002D49087909F056F9064622462B4608F0EC
:10289000C9FECDE9000108F093FE1B49086052E033
:1028A000C1000020C0000020A6000020A3000020DE
:1028B0008A000020A40000208B0000208C00002053
:1028C0008D0000208E0000208F0000209600002048
:1028D0009400002092000020AE000020B0000020F4
:1028E000B10000200ACA0008B2000020B300002096
:1028F000B40000209700002093000020C4000020B6
:10290000B8000020C8000020BC000020CC0000203F
:10291000D0000020D4000020D8000020DC000020DF
:10292000E0000020E4000020E80000202800002053
:102930002C00002098000020170000200000F03F2D
:1029400000408F4000BF00BF0FE01920EC49088015
:10295000EC48007808B9012000E00020E94908703F
:102960000120E949087000E000BFC6E1E7480078AF
:10297000C728FAD1E6480078C838082873D2DFE8BB
:1029800000F00416283A3B3CCFFA1920DC490880B5
:102990000120E0490870E048007810B90620DE49BF
:1029A0000870DD480078401EDB490870A4E119205A
:1029B000D34908800120D4490870D848007810B95C
:1029C0000520D6490870D5480078401ED3490870C4
:1029D00092E11920CA4908800120CB490870D048EB
:1029E000007810B90220CE490870CD480078401E0A
:1029F000CB49087080E17FE17EE11920C049088061
:102A0000C8480078002876D1C748007810B101285E
:102A100072D10EE00120BC490870C448007810B99A
:102A20000720C2490870C1480078401EBF4908709D
:102A300074E0BE48007807286CD2DFE800F0041587
:102A40002144505E6A00BA480088401CB84908809A
:102A50000846008840F63401884203DB40F2E1700A
:102A6000B349088057E046E1B2480078401CB149BC
:102A70000870084600780D2801DB012008704AE044
:102A8000AD480078401CAC490870A948008801F0A6
:102A90006FFD58B1A7480078022807D1A6480078F2
:102AA0001D2802DB0120A449087034E0A148007809
:102AB000401EA249085CA0490978884202DC012036
:102AC0009D49087027E09E480078401C9C4908708A
:102AD00008460078182801DB002008701BE09948A0
:102AE0000078401C97490870084600783C2801DBB4
:102AF000002008700FE012E00FE093480078401CBF
:102B000091490870084600783C2801DB00200870D5
:102B100001E000E000BF00BF00E000BF00BFEBE04D
:102B20001920774908808948007820B1012852D0BF
:102B300002287DD15EE00120764908708448007843
:102B400010B905208249087081480078401E8049EC
:102B5000087008460078052832D2DFE800F0030D3F
:102B6000161F28007B4800687B4908607B48006886
:102B70007B49086025E0AFE07A4800687649086044
:102B800079480068764908601BE078480068724917
:102B90000860774800687249086012E0754800686C
:102BA0006D490860744800686D49086009E0734821
:102BB000006869490860724800686949086000E077
:102BC00000BF00BF644800686E4908606448006840
:102BD0006D4908607EE001204B4908706B48007821
:102BE00010B909206949087068480078401E674993
:102BF00008706FE065480078082869D06448634928
:102C00000978405C401C6249604A12788854084642
:102C10005E490978405C0A2804DB00205C495B4A75
:102C2000127888545A49497864225143584A00E03E
:102C30004FE0927802EB820201EB4201544AD278D3
:102C4000881808F060FF82460022524B08F0C2FF4D
:102C500006460022504B08F0A1FD804689464C49AB
:102C6000087808F067FF044642464B4608F0DAFC55
:102C7000CDE9000108F0A4FC3749086044494979CE
:102C800064225143424A927902EB820201EB4201F3
:102C90003F4AD279881808F036FF064600223D4B9D
:102CA00008F098FF044600223B4B08F077FD804671
:102CB00089463749087908F03DFF824642464B462F
:102CC00008F0B0FCCDE9000108F07AFC2449086066
:102CD00000E000BF00BF0FE0192009490880094843
:102CE000007808B9012000E00020064908700120A2
:102CF0000549087000E000BF00BFBDE8FC9F000070
:102D0000A6000020AA000020A4000020C10000208E
:102D1000C0000020A30000209B0000209C00002099
:102D20009D00002096000020A10000209F000020B0
:102D3000AE000020B0000020B10000200ACA000848
:102D4000B2000020B3000020B4000020A200002048
:102D5000A0000020C4000020B8000020C80000200F
:102D6000BC000020CC000020D0000020D4000020B7
:102D7000D8000020DC000020E0000020E40000205B
:102D8000E8000020280000202C00002098000020EF
:102D9000170000200000F03F00408F402DE9FC5F4D
:102DA00082468B46BBF1040F26D19AF803209AF88D
:102DB000021002EB012101EB8101012202EB410033
:102DC00008F0A1FE804600221F4B08F0E7FC0446F5
:102DD0000D469AF801209AF8001002EB012008F045
:102DE00092FE064622462B4608F01CFCCDE9000167
:102DF00008F0E6FBBDE8FC9FBBF1030F21D19AF878
:102E000002209AF8011002EB012101EB810101225D
:102E100002EB410008F077FE064600220A4B08F05C
:102E2000BDFC04460D469AF8000008F083FE2246D9
:102E30002B46CDE9000108F0F5FB804608F0C0FB09
:102E4000D8E74FF07E50D5E70088C3400FB400218B
:102E50009DF802309DF8030018449DF80430184492
:102E60009DF80530C21800BF05E00DF10600405C7A
:102E70000244481CC1B29DF805008842F5DC9DF86B
:102E80000501D3B2984202D1012004B0704700205E
:102E9000FBE700002DE9F047022000F04DFA012881
:102EA0007ED1A248006809F0A5F904460D46A04964
:102EB000088808F03FFE80464FF066329D4B08F0D0
:102EC00089FE064622462B4608F084FE9A4A9B4B12
:102ED0001B8802EBC30203C29948006809F08AF913
:102EE00004460D469249488808F024FE06464FF0F5
:102EF0006632904B08F06EFE804622462B4608F064
:102F000069FE904A8D4B1B8802EBC30203C28E48B8
:102F1000006809F06FF904460D468549888808F075
:102F200009FE80464FF06632824B08F053FE06469B
:102F300022462B4608F04EFE844A804B1B8802EB4B
:102F4000C30203C28248006809F054F904460D46E2
:102F50007749C88808F0EEFD80464FF06632754B21
:102F600008F038FE064622462B4608F033FE794A22
:102F7000724B1B8802EBC30203C27748006809F05A
:102F800039F904460D466A49088908F0D3FD8046A0
:102F90004FF06632674B08F01DFE0646224600E001
:102FA000C2E02B4608F016FE6C4A644B1B8802EB0D
:102FB000C30203C26A48006809F01CF904460D46C2
:102FC0005B49488908F0B6FD80464FF06632594BA0
:102FD00008F000FE064622462B4608F0FBFD614A3B
:102FE000564B1B8802EBC30203C25F48006809F01E
:102FF00001F904460D464E49888908F09BFD0646B6
:103000004FF066324B4B08F0E5FD804622462B46DA
:1030100008F0E0FD554A494B1B8802EBC30203C28E
:103020005348006809F0E6F804460D464049C8894F
:1030300008F080FD80464FF066323E4B08F0CAFD36
:10304000064622462B4608F0C5FD4A4A3B4B1B88E4
:1030500002EBC30203C24848006809F0CBF80446FB
:103060000D463349088A08F065FD06464FF0663282
:10307000304B08F0AFFD804622462B4608F0AAFDF3
:103080003E4A2E4B1B8802EBC30203C23C48006839
:1030900009F0B0F804460D462549488A08F04AFD73
:1030A00006464FF06632234B08F094FD80462246D8
:1030B0002B4608F08FFD334A204B1B8802EBC302DE
:1030C00003C21D481D49098800EBC1002E4A2F4B41
:1030D000D0E90061304608F0A3FF044608F070FA1A
:1030E0002B49164A128841F832000020134A1288F0
:1030F00001EBC201486011480088401C0F4908805C
:1031000008460088B0F5167F08D10020088001200D
:10311000204908700021204802F0B3FD012000F092
:103120004BF8022000F03AF8BDE8F087D400002008
:103130007802002066664A3FB84D00203600002025
:10314000D800002078600020DC00002038730020C8
:10315000E0000020F8850020E4000020B89800205E
:10316000E800002078AB0020C4000020B802002056
:10317000C800002078150020CC000020382800204E
:10318000D0000020F83A00209A9999999999F93F2E
:1031900038BE002038000020002C014000F0805193
:1031A00011B10349086001E002494860704700001E
:1031B000040402400000024000F0805111B10349B4
:1031C000086001E0024948607047000004040240C2
:1031D0000000024021B1026842F00102026004E0F6
:1031E00002684FF6FE731A400260704701684FF69E
:1031F000FE72114001600021016041608160C16088
:103200004B49884208D14A490839496841F00F01C1
:10321000474A083A51608AE045491431884208D14A
:1032200043490839496841F0F001414A083A516080
:103230007DE03F492831884208D13D490839496835
:1032400041F470613A4A083A516070E038493C31C3
:10325000884208D136490839496841F47041344AF6
:10326000083A516063E032495031884208D1304910
:103270000839496841F470212D4A083A516056E0F6
:103280002B496431884208D129490839496841F4F9
:103290007001274A083A516049E02549783188424F
:1032A00008D123490839496841F07061204A083A39
:1032B00051603CE01F49884206D1011F096841F076
:1032C0000F01021F116032E01A491431884208D1FF
:1032D0001849091F096841F0F001164A121F1160D0
:1032E00025E014492831884208D11249091F09688C
:1032F00041F470610F4A121F116018E00D493C3112
:10330000884208D10B49091F096841F47041094AF4
:10331000121F11600BE007495031884207D105495F
:10332000091F096841F47021024A121F1160704799
:10333000080002400804024001460020002201F07B
:10334000805313B1054B1A6801E0054B1A6802EA75
:1033500001030BB1012000E000207047000402408F
:10336000000002401AB103680B43036002E00368E7
:103370008B430360704710B50022026847F6F07374
:103380009A430C6A8B6823430C6923434C6923439B
:103390008C692343CC6923434C6A23438C6A2343BF
:1033A0001A430260CB6843600B6883604B68C3605C
:1033B00010BD000010B500241548406820F470408E
:1033C000134948600846406840F40040486004E003
:1033D000601CC4B2012004F02FFF0E48006808B141
:1033E000C82CF5DBC82C01DB012010BD002404E053
:1033F000601CC4B2012004F01FFF0648006808B931
:10340000F02CF5DBF02C01DB0120EEE70020ECE7EF
:10341000002001402C0124422DE9F84F00F0CEF8A5
:1034200000F0AAF8FFF7C6FFCC2000F0D3F8BE20CA
:1034300000F0D0F800F08EF8834600F08BF80446D8
:10344000072C08DDE043C4B26FEA0B0000F0FF0B6D
:103450004FF0000A01E04FF0010AA1464FEA0920AF
:103460000FFA80F909EB0B000FFA80F9484609F0D2
:1034700071F8009008F0BEFE07460022084B08F0E5
:10348000A9FB054608F0E2FA0FFA80F9BAF1000F3D
:1034900002D04846BDE8F88FC9F1000000B2F9E754
:1034A0000000E43F08B50121080201F06BFA4FF477
:1034B0000060ADF8000010208DF8030003208DF8A7
:1034C00002006946074800F071FD4FF400610548AD
:1034D00000F002FE00F050F8FFF79EFFFFF76AFFD2
:1034E00008BD00000020014010B51748406820F4D6
:1034F0007040154948600846406840F440504860B4
:10350000002012490860022004F096FE01201049B4
:10351000C1F8AC010C48406820F470400A4948608A
:103520000846406840F4004048600C2004F084FEE7
:1035300006488038006808B1012400E000243220E9
:1035400004F07AFE204610BD00200140AC01244268
:103550000000244270B50026012508E0FFF7C4FFF3
:103560000446E00140EA6600C6B2681CC5B2082DF8
:10357000F4DD304670BD000010B50D48406820F401
:1035800070400B4948600846406840F4405048602D
:1035900000200849086040F2EE2004F04DFE0120B2
:1035A0000549C1F8AC010F2004F046FE10BD000033
:1035B00000200140AC0124420000244210B5FFF776
:1035C000DBFFFFF7F7FECC2000F004F8442000F00A
:1035D00001F810BD70B504461848406820F47040EA
:1035E000164948600846406840F44050486001254C
:1035F00020E004F0010664106EB10020104908605C
:10360000022004F019FE01200E49C1F8AC013C2053
:1036100004F012FE0CE00020094908603C2004F090
:103620000BFE01200749C1F8AC01022004F004FEA2
:10363000681CC5B2082DDCDD70BD00000020014013
:10364000AC012442000024427047000010B5002461
:1036500018E0202002F0BAFF0C4800787F280BD039
:103660000A480078872807D008480078972803D0B0
:10367000064800788F2803D1202002F0A7FF03E03E
:10368000601CC4B2102CE4DB00BF10BD320000206F
:1036900010B50446204602F099FF10BD2DE9F04117
:1036A00006460F4614461D46DDF81880394630465A
:1036B00001F036FE42462046294600F003F8BDE8F8
:1036C000F08100002DE9F04F8FB004460D46904682
:1036D0000126142108A8FCF730FEC146B34600229B
:1036E00013462046294608F039FA04D22D20FFF768
:1036F000CFFF85F000452046294608F0D7F9074658
:103700003C4A3D4B2046294607F08CFF04460D46B7
:10371000B9F1040F01DD4FF0040907E00BEB8B005A
:103720004FEA400BA8F1010000F0FF08B8F1000FCC
:10373000F4D1584608F0FEF9CDE90401384608F006
:10374000F9F922462B46CDE9000108F077FBCDE9D7
:103750000201DDE9042308F03DFACDE9060108F095
:10376000A5F91FFA80FA04E0701CC6B20A20B7FB64
:10377000F0F70A20B7FBF0F00028F5D120462946E3
:1037800008F094F90746BBF1010F02D02E2008A9DA
:1037900088550D960CE0701EC6B20A20B7FBF0F1FA
:1037A00000FB1170303008A988550A20B7FBF0F7EC
:1037B000002EF0D114E0A9F1010000F0FF090A2069
:1037C0009AFBF0F100FB11A03030C1B20D984844D3
:1037D000401C08AA11540A209AFBF0F01FFA80FA44
:1037E000B9F1000FE7D108A800F0EDF80FB0BDE87F
:1037F000F08F000048AFBC9AF2D77A3E10B51E4851
:1038000004781E480078082807D101201C49086068
:103810000021800702F035FA03E00121880702F059
:1038200030FA16480078102816D101201449086093
:10383000102C08DA13A20721002000F06DF80120F7
:103840001149087016E011A20721002000F064F869
:1038500002200D4908700DE00DA20721002000F0A4
:103860005BF80020084908700549091D08600949EE
:10387000C1F8980110BD00009100002090000020C8
:1038800090012342207700009A000020206500006C
:10389000202000000000234270B505460E46144665
:1038A0003146284601F03CFD204600F001F870BD8D
:1038B00070B586B006460124142101A8FCF73DFD31
:1038C000354604E0601CC4B20A20B5FBF0F50A20BE
:1038D000B5FBF0F00028F5D135460CE0601EC4B20F
:1038E0000A20B5FBF0F100FB1150303001A908555A
:1038F0000A20B5FBF0F5002CF0D101A800F063F828
:1039000006B070BD10B503A20721002000F004F836
:1039100010BD0000205000002DE9F0410646884609
:1039200015464146304601F0FBFC36B1012E06D06B
:10393000022E06D0032E08D105E0802606E0902650
:1039400004E0882602E0982600E000BF00BF08EBF4
:103950000600C7B2002431E0287802F037FE6D1C63
:10396000204604EBD0714910A4EB410121B3781C2F
:10397000C7B2882F0CD0902F04D0982F0ED0A02F34
:1039800018D111E00021032001F0CAFC982712E0B1
:103990000021012001F0C4FC90270CE0002102204E
:1039A00001F0BEFC882706E00021084601F0B8FCC3
:1039B000802700E000BF00BF601CC4B22878002848
:1039C000CAD1BDE8F08170B50446002505E0207835
:1039D00002F0FCFD641C681CC5B220780028F6D1FA
:1039E00070BD000070B50446002516E0207802F096
:1039F000EDFD641C0B48007880280BD00948007846
:103A0000882807D007480078982803D00548007810
:103A1000902800D104E0681CC5B220780028E5D1C8
:103A200000BF70BD3200002010B52E480088401C39
:103A30002C4908802C480078642807D02A48007850
:103A4000C82803D028480078CB2817D125480088FB
:103A5000052800DA10BD25480078002838D003F08A
:103A60007FF900201F49088005F098FB00201F49BE
:103A7000087001211E4802F004F929E01948008865
:103A8000192814DA17480088052190FBF1F201FB90
:103A9000120058B91548007840B103F061F90020D0
:103AA000124908700121124802F0EBF8D2E70F48E2
:103AB000007868B103F054F900200A49088005F045
:103AC0006DFB0020094908700121094802F0D9F86E
:103AD00004480088232802DB00200249088000BF38
:103AE000B8E70000A6000020C00000203800002039
:103AF000002C014010B50A2004F078FB0121074892
:103B000000F0DFFA012804D10548007808B9FEF773
:103B1000D5FC012000F0B8F810BD000000180140ED
:103B20006800002010B50A2004F060FB022106485E
:103B300000F0C7FA20B90548007808B9FDF7DEF8AB
:103B4000022000F0A1F810BD00180140680000201C
:103B500010B50A2004F04AFB0421064800F0B1FA2F
:103B600020B90548007808B9FCF710FF042000F0E0
:103B70008BF810BD001801406800002010B50A2025
:103B800004F034FB0821064800F09BFA20B90548F0
:103B9000007808B9FDF73AFD082000F075F810BD6F
:103BA00000180140680000200EB500F0FFFC012164
:103BB000084600F0E7FE0021042000F0D7F90120BC
:103BC000019000208DF808000C208DF809000120DC
:103BD0008DF80A0001A800F073F80121042000F01C
:103BE000C5F90220019001A800F06AF80221042022
:103BF00000F0BCF90420019001A800F061F8032155
:103C0000042000F0B3F90820019001A800F058F852
:103C100006208DF8000002208DF8010003208DF8A9
:103C2000020001208DF80300684600F041FD0720E6
:103C30008DF8000002208DF801008DF802000120AF
:103C40008DF80300684600F033FD08208DF8000071
:103C500002208DF8010001208DF802008DF803008C
:103C6000684600F025FD09208DF8000002208DF83F
:103C7000010000208DF8020001208DF80300684645
:103C800000F016FD0EBD00000149086070470000FD
:103C9000140401401CB54FF48030FFF7F5FF4FF4DA
:103CA0008030009000208DF8040010208DF8050071
:103CB00001208DF80600684600F002F81CBD0000E7
:103CC000002123498279002A3AD00A461268036803
:103CD0009A430B461A600A1D126803689A430B1D2B
:103CE0001A60027911440A6803681A430A60184A84
:103CF0000832126803689A43154B08331A601A1D7C
:103D0000126803689A43124B0C331A604279102AE6
:103D10000ED11A1F126803681A430D4B08331A603C
:103D20001A1D126803681A43094B0C331A600DE020
:103D30000749427911440A6803681A430A6005E09A
:103D4000027911440A6803689A430A6070470000C8
:103D50000004014000B5ADF5037D34488078822829
:103D600002D00DF5037D00BD30480079F0285BD10D
:103D7000F8222E4910316846FCF768FA4FF4847235
:103D80002A4940A8FCF762FA40A80FC8FFF75EF87E
:103D900020B3264A9178D07801F05EFB24492C208C
:103DA00001F07EFB01F05EFB22482349F822CDE9B9
:103DB0003E101E4910316846FCF748FA4FF48472F1
:103DC0001A4940A8FCF742FA40A80FC800F060FD6D
:103DD00018480178184800F037FF25E0F12082905C
:103DE000124A9178D07801F037FB82A9012001F0C6
:103DF00057FB01F037FB0F480F49F822CDE93E1081
:103E00000A4910316846FCF721FA4FF484720749D9
:103E100040A8FCF71BFA40A80FC800F039FD054880
:103E20000178054800F010FF00BF9AE764D2002037
:103E30006CD300205A02002098D3002010B5362001
:103E400002F0B4FB302002F0B1FB10BD2DE9FF5FA2
:103E500081460D461646484608F05CFB84B2032EA8
:103E60002ED12046E11704EB11610912A4EB0121C8
:103E7000297008F087FB8346494608F0C8FC824653
:103E800008F0B8F9294A2A4BCDE9000107F0CAFB2E
:103E90000022284BCDE9020107F09CFE074607F0FF
:103EA00005FE84B22046E11704EB1161090A69702E
:103EB000E11704EB11610912A4EB0121A97033E0B1
:103EC000042E31D12046E11704EB1161090A297053
:103ED000E11704EB11610912A4EB0121697008F0EC
:103EE00051FB4946009008F092FC019008F082F9DD
:103EF0000E4A0F4BCDE9020107F094FB0746002262
:103F00000C4B07F067FE824607F0D0FD84B22046D6
:103F1000E11704EB1161090AA970E11704EB1161C3
:103F20000912A4EB0121E970BDE8FF9F8DEDB5A05A
:103F3000F7C6B03E00408F4008B5F320ADF8000052
:103F400000208DF803006946064800F02FF80F2086
:103F5000ADF8000000208DF803006946024800F02B
:103F600025F808BD000801400010014030B50022CE
:103F70008B071C0F0F2303FA04F20B4B8C1053F822
:103F800024309343084C8D1044F8253023468C1080
:103F900053F824308C07240F00FA04F42343024C16
:103FA0008D1044F8253030BD080001402DE9F04166
:103FB000024600250026002000230024002791F857
:103FC00003C00CF00F0591F803C00CF0100CBCF10D
:103FD000000F03D091F802C04CEA050591F800C02B
:103FE000BCF1000F31D0146800202BE04FF0010C21
:103FF0000CFA00F3B1F800C00CEA03069E4220D18F
:1040000083004FF00F0C0CFA03F7BC4305FA03FCD6
:104010004CEA040491F803C0BCF1280F06D14FF01C
:10402000010C0CFA00FCC2F814C00AE091F803C0BD
:10403000BCF1480F05D14FF0010C0CFA00FCC2F89E
:1040400010C0401C0828D1D31460B1F800C0BCF1E6
:10405000FF0F34DD546800202EE000F1080C4FF013
:10406000010808FA0CF3B1F800C00CEA03069E42FE
:1040700021D183004FF00F0C0CFA03F7BC4305FA73
:1040800003FC4CEA040491F803C0BCF1280F05D1ED
:1040900000F1080C08FA0CF8C2F8148091F803C07B
:1040A000BCF1480F07D100F1080C4FF0010808FAE5
:1040B0000CF8C2F81080401C0828CED35460BDE82C
:1040C000F0810246002093680B400BB1012000E014
:1040D00000207047416170470161704700BFFEE7F3
:1040E00010B500200F4908600F48006820F07040AC
:1040F0000D4908600846006840F040500860002004
:104100000A49C1F89C01022004F096F801200549F3
:104110000860022004F090F800200449C1F89801DA
:1041200010BD000098812142000C01400080214216
:1041300008B50121082000F025FCC020ADF80000E2
:1041400010208DF8030003208DF802006946044812
:10415000FFF72CFFC0210248FFF7BEFF08BD00009B
:10416000000C014010B500200F4908600F4800689E
:1041700020F070400D4908600846006840F040504B
:10418000086001200A49C1F89C01022004F054F89B
:10419000012005490860022004F04EF8002004497F
:1041A000C1F8980110BD000098812142000C014027
:1041B0000080214270B5054600241748006820F0B1
:1041C0007040154908600846006840F000400860EB
:1041D000002616E0002011490860022004F02CF8A7
:1041E00001200F49C1F898016006040E0B487C3885
:1041F000006808B1601CC4B2012004F01DF8701CF6
:10420000C6B2082EE6DB15B9FFF7ACFF01E0FFF7F9
:1042100067FF204670BD0000000C014098812142DC
:104220000080214270B504461848006820F07040B4
:10423000164908600846006840F0405008600020B9
:104240001349086000251EE0E00920B10120104953
:10425000091D086003E000200D49091D0860600683
:10426000040E022003F0E8FF012009490860022043
:1042700003F0E2FF00200749C1F89801022003F093
:10428000DBFF681CC5B2082DDEDB70BD000C0140F1
:10429000988121420080214210B50F48006820F02B
:1042A00070400D4908600846006840F040500860C2
:1042B00001200A4908600A49C1F89801042003F066
:1042C000BBFF002005490860042003F0B5FF002073
:1042D0000349C1F8980110BD000C01409C812142A6
:1042E0000080214210B50F48006820F070400D4951
:1042F00008600846006840F04050086000200A4905
:1043000008600A49C1F89C01042003F095FF0120D0
:10431000054908600549C1F89C01042003F08CFFA1
:1043200010BD0000000C0140988121420080214214
:1043300010B500241448006820F07040124908604D
:104340000846006840F00040086001200F490860FE
:1043500003F072FF01200E49C1F8980103F06CFFD1
:1043600007E0601CC4B2FA2C03DDFFF7BBFF01209D
:1043700010BD0648803800680028F2D10349091FA3
:10438000086000BFF4E70000000C01409C8121425E
:10439000008021424CF6CC40014908607047000083
:1043A0000030004010B500F013F810BD70B50546A0
:1043B0000C4645F2555000F01FF8284600F010F862
:1043C000204600F013F800F003F8FFF7E3FF70BD9C
:1043D0004AF6AA20014908607047000000300040FA
:1043E0000149486070470000003000400149886082
:1043F000704700000030004001490860704700002D
:1044000000300040704710B500F076FEFFF7FAFF6D
:1044100010BD000070B5002400250120124908706D
:10442000342002F0C3F800BF12E004F18001C8B2EA
:1044300002F0BCF8002507E0002002F0C7F80020D9
:1044400002F0C4F8681CC5B2102DF5DB601CC4B2C4
:10445000202CEADB362002F0A9F8302002F0A6F882
:1044600000200149087070BD3400002008B500200C
:10447000094908700121082000F084FA0720ADF8EE
:10448000000003208DF8020010208DF8030069461B
:104490000248FFF78BFD08BD31000020000C0140F1
:1044A00070B504460D461646FFF7B4FF324629465E
:1044B000204600F003F8FFF7C1FC70BD2DE9F0477E
:1044C00005460C4616460027B84605F0030504F0DD
:1044D0000F04112096FBF0F100FB1160C6B2012021
:1044E00022490870342002F061F800BF37E0A94685
:1044F00005EBD9714910A5EB4101802202EB0111B6
:104500003944C8B202F052F8022D08DAA14604EB91
:10451000D97149108031C8B202F048F807E0A146CD
:1045200004EBD97149108831C8B202F03FF8204637
:1045300004EBD0714910A4EB410111B1002002F04D
:1045400045F84FF0000806E0FF2002F03FF808F1C0
:10455000010000F0FF08B045F6DB781CC7B2102F51
:10456000C5DB002001490870BDE8F0873400002059
:104570000146CA1701EB92729210A1EB820292B926
:10458000642091FBF0F200FB121050B94FF4C87098
:1045900091FBF0F200FB121008B9012070470020D7
:1045A000FCE70120FAE70020F8E7000008B5012148
:1045B000402000F0E7F90F20ADF8000048208DF80A
:1045C000030069460148FFF7F1FC08BD00180140EF
:1045D00008B50121402000F0D5F97020ADF80000A9
:1045E00010208DF8030003208DF80200694604486E
:1045F000FFF7DCFC70210248FFF76CFD08BD0000EE
:104600000018014010B5FFF731FFFFF703FF30201E
:1046100001F0CCFF142003F00FFE0C2001F0C6FFC8
:10462000012001F0C3FF142003F006FE022001F078
:10463000BDFF062001F0BAFF10BD10B5302001F01B
:10464000B5FF142003F0F8FD012001F0AFFF10BD0D
:1046500000BFFEE7704708B501208DF800008DF817
:10466000010000208DF8020001208DF8030068464B
:1046700000F01EF808BD08B50B208DF800000420DE
:104680008DF801008DF8020001208DF803006846C6
:1046900000F00EF812208DF8000001208DF80100C6
:1046A0008DF802008DF80300684600F001F808BD9F
:1046B00070B5002100230F22C47804B3154C246880
:1046C00004F4E064C4F5E064210AC1F10403CA40C3
:1046D000447804FA03F184781440214309010E4C14
:1046E0000678A155047804F01F050124AC40057834
:1046F0006D11AD0005F1E025C5F8004109E0047831
:1047000004F01F050124AC40044D0678761145F8ED
:10471000264070BD0CED00E000E400E080E100E028
:1047200002490143024A1160704700000000FA0587
:104730000CED00E02DE9FC5F1E4801780C2001F033
:10474000F3FE1D480178102001F0EEFE1B4903C95D
:1047500007F0ACF94FF6FF7101EA104A174903C997
:1047600007F0A4F91FFA80FB144903C907F09EF96A
:10477000009007F0DFF9804610480CC8404607F06B
:104780005DFB064600220E4B07F024FA044607F0B4
:104790008DF980B201905146142001F0C5FE5946B2
:1047A000182001F0C1FE1C20019901F0BDFEBDE8FA
:1047B000FC9F00008E0000208F0000204802002097
:1047C00000408F4010B54FF48030FFF75DFA0420B1
:1047D00000F018F820B1042000F00AF8FFF7AAFF53
:1047E00010BD0000014908627047000000000E4241
:1047F0000349096841EA8001014A116070470000DD
:104800000070004001460020034A52680A400AB185
:10481000012000E000207047007000402DE9F047C3
:104820001C2000F05FFC824607F084F90646002257
:104830000C4B06F0B3FF04460D46182000F052FC66
:104840000746142000F04EFC07EB0046304607F008
:1048500071F9804622462B4606F0E4FE024A03C266
:10486000BDE8F08700408F40480200200149086100
:104870007047000000000E4201460020034A106805
:1048800020F0E00008431060704700000070004016
:104890000FB430B5469D459C00209DF80C1021704A
:1048A0009DF80D1061709DF80E10A1709DF80F100D
:1048B000E1709DF8101021719DF81110617100BF19
:1048C00006E00DF112010A5C811D6254411CC8B260
:1048D0009DF811108142F4DC9DF811219DF8111012
:1048E000891D62549DF812219DF81110C91D625452
:1048F0009DF813219DF81110083162549DF8111094
:104900000931298030BC5DF814FB70470146002056
:10491000034A506820F4404008435060704700004C
:104920000010024029B1064A52690243044B5A6101
:1049300004E0034A52698243014B5A617047000008
:104940000010024029B1064AD2690243044BDA61E1
:1049500004E0034AD2698243014BDA6170470000E8
:104960000010024029B1064A12690243044B1A6141
:1049700004E0034A12698243014B1A617047000048
:104980000010024029B1064A92690243044B9A6121
:1049900004E0034A92698243014B9A617047000028
:1049A0000010024001490860704700004004424284
:1049B0000348406A40F08070014948627047000037
:1049C0000010024010B54FF48040FFF79FFF012117
:1049D0000846FFF7A7FF012140F60420FFF7D2FFAA
:1049E00010BD000030B500210022002400232D4D11
:1049F0006D6805F00C0121B1042905D0082923D1E7
:104A000005E0294D056022E0274D05601FE0254D9A
:104A10006D6805F47012234D6D6805F4803402252D
:104A200005EB92421CB9214D554305600BE01D4D2D
:104A30006D6805F400351DB11C4D5543056002E05D
:104A4000194D5543056002E0174D056000BF00BFDA
:104A5000144D6D6805F0F0010909154D6B5C056892
:104A6000DD4045600F4D6D6805F4E061090A104DA9
:104A70006B5C4568DD4085600A4D6D6805F46051EA
:104A8000C90A0B4D6B5C4568DD40C560054D6D681E
:104A900005F44041890B074D6B5CC568B5FBF3F528
:104AA000056130BD0010024000127A0000093D008F
:104AB0005C0200206C02002010B501460022002399
:104AC00000204A11012A02D1094C236806E0022A7B
:104AD00002D1074C236A01E0054C636A01F01F0212
:104AE000012494401C400CB1012000E0002010BDC6
:104AF0000010024000210B4A11700A4A203A82F845
:104B00002010012802D0042808D103E00121054A21
:104B1000117004E00521034A117000E000BF00BFDE
:104B200070470000201002400149086070470000F3
:104B30003C0442420249096A0143014A116270473A
:104B40000010024010B586B0044601210420FFF792
:104B500019FF01214804FFF7F5FE0420ADF8140009
:104B600018208DF8170005A92048FFF71FFA082024
:104B7000ADF8140004208DF8170005A91B48FFF7B5
:104B800015FA01214804FFF7EDFE00214FF4003033
:104B9000FFF7E8FE01940020ADF80800ADF80A0028
:104BA000ADF80C00ADF810000C20ADF80E0001A916
:104BB0000F4801F0ABFB26208DF8000000208DF897
:104BC000010001208DF802008DF803006846FFF710
:104BD0006FFD012240F22551054801F072FB0121D1
:104BE000034801F02BFB06B010BD00000008014097
:104BF000004400402DE9F04107460D461048067874
:104C00000024002028800A2003F0F0FA0C480088D5
:104C1000864212D18EB100BF04E00A48005D3855CB
:104C2000601CC4B2B442F8DB05480088288000202C
:104C3000034908800120BDE8F0810020FBE7000067
:104C4000480000205CD1002070B505460E460024C7
:104C50000CE000BF40210C4801F0FCFA0028F9D01C
:104C6000295D094801F0C3FB601CC4B2B442F0DB0B
:104C700000BF4021044801F0EDFA0028F9D00020DF
:104C80000249088070BD0000004400404800002038
:104C9000024909888143014A118070470428004075
:104CA0000348008840F01000014908807047000068
:104CB00004280040034800884FF6EF71084001497E
:104CC000088070470428004070B5002600240025A5
:104CD00000F07AF806463848B6FBF0F4374800880A
:104CE000A0423CD035490C8040F2B27510E0284615
:104CF000FFF73EFC40B1B4F5B77F02D3A4F5B7741B
:104D000004E0681C85B206E0A4F26D14681C85B24C
:104D1000B4F5B67FEBD800BF29488580002516E0A2
:104D200027498888FFF724FC30B1012D04D11D2CC0
:104D300001D31D3C09E00CE02248405DA04203D8AD
:104D40002048405D241A00E003E0681C85B21C2C5A
:104D5000E6D200BF681C1A498871601CC8711648E9
:104D6000B6FBF0F100FB11644FF46160B4FBF0F0AE
:104D7000134908704FF46160B4FBF0F100FB11407F
:104D80003C21B0FBF1F00E4948704FF46160B4FB78
:104D9000F0F100FB11403C21B0FBF1F201FB1200ED
:104DA000074988700B46DA799979988800F028F8D5
:104DB00003490872002070BD805101003A000020B4
:104DC00052D100200ACA0008002103480188001FB0
:104DD000008841EA004070471C280040014600203E
:104DE000064A12880A40D0B2044A121F12880A40AA
:104DF00012B108B1012000E00020704704280040F3
:104E0000F0B503460C461546642093FBF0F0C6B29D
:104E1000642093FBF0F700FB1730C1B2132E02DDC4
:104E200001F16400C1B20846CF1701EB977701EB9F
:104E3000A707BAB2072092FBF0F700FB172082B257
:104E40005719601EDFF82CC01CF80000384482B2ED
:104E5000CF1701EB9777BF10A1EB87071FB9032C82
:104E600001DA501E82B2072092FBF0F700FB1720F8
:104E7000C0B2F0BDFEC9000810B50120FFF7AEFFBB
:104E800008B1FFF721FF0220FFF7A8FF20B10220A1
:104E9000FFF7FEFEFFF718FF0520FFF7F9FE00F011
:104EA00005F900F0FFFF10BD29B1064A1288024340
:104EB000044B1A8004E0034A12888243014B1A8093
:104EC00070470000002800401CB5002401214FF06D
:104ED000C050FFF737FD0120FFF784FC0420FBF7EB
:104EE00037FD45F25001884240D0FBF703FD012019
:104EF000FFF700FE04E0601CC4B20A2003F076F95C
:104F00004120FFF7D9FD08B9FA2CF4DBFA2C01DBBC
:104F100001201CBD4FF48070FFF70CFE0120FFF74D
:104F200003FE00F0C3F800F0CBF801210846FFF7BC
:104F3000BBFF00F0BBF8FFF7B3FE47F6FF7000F0D1
:104F4000A5F800F0B3F800201E210E230122CDE9C0
:104F50000010072140F2E17000F026F8FFF7AAFEEA
:104F600045F250010420FBF701FD07E000F0A8F82E
:104F700001210846FFF798FF00F098F800F004F8C8
:104F8000FFF7A2FE0020C4E708B503208DF800005B
:104F900000208DF801008DF8020001208DF803003B
:104FA0006846FFF785FB08BD2DE9F05F06460F4612
:104FB00090469946DDE90AAB0024B6F5FC6F03DDA7
:104FC00040F63300864202DD0120BDE8F09F40F24A
:104FD000B2750AE02846FFF7CBFA10B12048044426
:104FE00001E020480444681C85B2B542F2DB781E1B
:104FF000C7B2002510E01C48405D40F2A3214843A1
:1050000004EBC0143046FFF7B3FA18B1012D01D1FB
:1050100016480444681C85B2BD42ECDBA8F10100CF
:1050200040F2A321484304EBC014C9EB4910C0EB84
:10503000092004EB0014CAEB0A1004EB80045C4462
:1050400001214FF0C050FFF77DFC0120FFF7CAFBA4
:10505000204600F00DF800F029F80020B5E7000028
:105060000085E2018033E1010ACA00088051010095
:1050700000B50246FFF714FE100C03490880091D15
:105080000A80FFF717FE00BD1828004000B5024651
:10509000FFF706FEC2F3034003490880091D0A809A
:1050A000FFF708FE00BD00000828004000BF0348CD
:1050B000008800F020000028F9D070470428004044
:1050C000074800884FF6F77108400549088000BF7F
:1050D0000348008800F008000028F9D0704700005D
:1050E0000428004010B504460120FFF77BFB204652
:1050F000FBF72EFC10BD000070B58CB073A00068EB
:105100000B9000242822724901A8FBF7E4F8002044
:10511000FBF75BFAD8B100210846FBF794FA00BF11
:1051200008E004EB4401481C03220BA9FBF779FAC1
:10513000601CC4B2142CF4DB664801786420FBF7D1
:1051400082FA654801786520FBF77DFA96E06348AE
:105150000078632850D1002437E004EB4401481C58
:1051600003220BA9FBF720FA03210BA8FDF716FE7B
:1051700001A941F8240051F8240007F03BF8054646
:105180000022574B06F024FE0AD301A951F824004F
:1051900007F030F80546534A534B06F0DFFC12D8AF
:1051A00001A951F8240003220BA9FEF74FFE04EBDE
:1051B0004401481C03220BA9FBF733FA4FF07E5041
:1051C00001A941F82400601CC4B20A2CC5DB64208C
:1051D000FBF7FBF9042804DA6420FBF7F6F93D49F4
:1051E00008706520FBF7F1F9022847DA6520FBF724
:1051F000ECF93949087041E038480078C7283DD1BA
:10520000002439E004EB440101F1330003220BA92F
:10521000FBF7CAF903210BA8FDF7C0FD01A941F86E
:10522000240051F8240006F0E5FF054600222C4B2F
:1052300006F0CEFD0AD301A951F8240006F0DAFFEA
:105240000546284A284B06F089FC13D801A951F8D5
:10525000240003220BA9FEF7F9FD04EB440101F140
:10526000330003220BA9FBF7DCF94FF07E5001A9B4
:1052700041F82400601CC4B20A2CC3DB1B4901980E
:1052800008601B49029808601A49039808601A4987
:10529000049808601949059808601949069808603B
:1052A000184907980860184908980860174909982C
:1052B000086017490A9808600C480068154908609A
:1052C0000B480068144908600CB070BD0100000074
:1052D00018CA00088E0000208F000020C1000020A6
:1052E00000001440FCA9F1D24D62503FC4000020E0
:1052F000C8000020CC000020D0000020D4000020F6
:10530000D8000020DC000020E0000020E4000020A5
:10531000E8000020B8000020BC000020704700001A
:1053200070B504460D4604F0030405F0070534B1DA
:10533000012C06D0022C06D0032C08D105E08024D5
:1053400006E0902404E0882402E0982400E000BFF6
:1053500000BF002004490870281904490870291961
:10536000C8B201F023F970BD3300002032000020E4
:1053700010B500F001F810BD0CB5002001900090B0
:105380003348006840F480303149086000BF30483D
:10539000006800F4003000900198401C01900098D3
:1053A00018B90198B0F5A06FF1D12948006800F450
:1053B000003010B10120009001E000200090009822
:1053C000012843D12348006840F0100021490860BB
:1053D0000846006820F0030008600846006840F0B6
:1053E000020008601A484068194948600846406849
:1053F00048600846406840F480604860084640685D
:1054000020F47C1048600846406840F4E81048608A
:105410000846006840F08070086000BF0C480068D3
:1054200000F000700028F9D00948406820F003001F
:10543000074948600846406840F00200486000BFE5
:105440000348406800F00C000828F9D10CBD0000AA
:105450000010024000200240014A9070D170704755
:1054600064D2002000200D4A9378D2781A440B4B66
:105470001B791A44094B5B79D11800BF05E0074A34
:10548000921D125C1144421CD0B2044A52798242ED
:10549000F5DC024B83F805117047000064D2002050
:1054A00010B504460B460022204600F00FF80022FB
:1054B00004E0995C04488154501CC2B20248801F29
:1054C00040799042F5DC10BD6AD200200149487154
:1054D0007047000064D20020042808D14FF0E0217A
:1054E000096941F004014FF0E022116107E04FF03B
:1054F000E021096921F004014FF0E02211617047B9
:105500007047000010B51348006840F001001149D1
:10551000086008464068104908400E49486008463F
:1055200000680E4908400B4908600846006820F4EE
:10553000802008600846406820F4FE0048604FF470
:105540001F008860FFF714FF4FF0006004490860F7
:1055500010BD0000001002400000FFF8FFFFF6FE43
:1055600008ED00E010B548480078401C4649087036
:105570000121880700F0D4FB00287CD00121880796
:1055800000F07CFB4148007820B1012843D002287C
:105590006FD156E03E48007801280ED13A48007895
:1055A00002280ADB3B48006808B9012000E000201F
:1055B00038490860002034490870354800780228CE
:1055C0000ED13148007804280ADB3248006808B957
:1055D000012000E000202F49086000202A490870BF
:1055E0002B48007804280ED12748007806280ADBCB
:1055F0002848006808B9012000E00020254908601B
:1056000000202149087000202249091D0860224914
:10561000C1F898012EE01C48007804280CDB1D48D6
:10562000001D006808B9012000E000201949091D8B
:1056300008600020144908700020164908310860ED
:1056400018E01148007804280CDB12480830006884
:1056500008B9012000E000200E4908310860002050
:105660000949087000200B49091D086002E002E0AA
:10567000FFE700BF00BF04480078642802DB002079
:105680000149087010BD00004C0000209A00002065
:105690009000002090012342000023427FB5054680
:1056A0000C4601210846FFF74DF9ADF80850ADF85A
:1056B00004400020ADF80A00ADF8060001A94FF043
:1056C000804000F093FB01221146900700F039FB67
:1056D0001C208DF8000001208DF8010002208DF8BB
:1056E000020001208DF803006846FEF7E1FF01216A
:1056F000880700F0C6FA7FBD10B50121064800F00A
:105700000FFB40B10121044800F0B8FA03480088BB
:10571000401C0249088010BD000400404A000020DF
:105720007FB505460C4601210220FFF70BF9ADF8C5
:105730000850ADF804400020ADF80A00ADF80600AE
:1057400001A90E4800F052FB012211460B4800F05F
:10575000F8FA1D208DF8000001208DF801000320CB
:105760008DF8020001208DF803006846FEF7A0FFC7
:105770000121024800F085FA7FBD000000040040CE
:1057800010B5F9480088401CF74908800121F74806
:1057900000F0C6FA00287DD00121F44800F06EFA2E
:1057A000F348007810B1012875D1C8E0F1480078BD
:1057B000012806D002282CD0032851D004286BD110
:1057C00079E0E9480088012802D1032000F0FAFCC2
:1057D000E949EA4800F0CCFCE3480088C8280FDC1F
:1057E000E5480078A0B1E5480078032810D10020F2
:1057F000DD490880DF480078401CDE49087007E07A
:105800000020D94908800120DA490870D849087079
:1058100093E0D5480088012802D1002000F0D2FC96
:10582000D549D64800F0A4FCCF480088C8280EDC33
:10583000D148007898B1D148007880B90020CA4991
:105840000880CC480078401CCA49087007E0002056
:10585000C54908800120C7490870C54908706CE037
:10586000C1480088012802D1002000F0ABFCC249E9
:10587000C24800F07DFCBC480088C82812DCBE4845
:105880000078B8B1BD480078A0B90020B6490880BA
:10589000B84802E0B6E1B3E14EE00078401CB549FB
:1058A000087007E00020B04908800120B149087065
:1058B000AF49087041E0AC480088012803D1B048E6
:1058C000007800F07FFCAC49AC4800F051FCA648E1
:1058D0000088C82827DCA848007818B3A7480078B3
:1058E000A7490978884226D100209F4908800120D5
:1058F000A04908709E490870A1480078A52802D1E7
:105900000020A04908709E480078AA2802D10120F2
:105910009C49087019209C49088001209B49087007
:105920009B49087007E000208F49088001209149B9
:1059300008708F49087000E000BF00BF61E18D482A
:105940000078062875D2DFE800F07403294F75D877
:1059500085480088012802D1042000F033FC8649E4
:10596000864800F005FC80480088C8280FDC824883
:10597000007890B18148007804280ED100207A493F
:1059800008807C480078401C7A49087005E00020B7
:10599000754908800120774908702FE17248008816
:1059A000012802D10A2000F00DFC7349734800F071
:1059B000DFFB6D480088C8280FDC6F48007890B185
:1059C0006E4800780A280ED100206749088069488F
:1059D0000078401C6749087005E000206249088093
:1059E00001206449087009E15F480088012802D15C
:1059F000002000F0E7FB6049604800F0B9FB5A481E
:105A00000088C8280EDC5C48007888B15B480078C4
:105A100070B900205449088056480078401C554908
:105A2000087005E0002050490880012051490870A5
:105A3000E4E0E2E04C480088012801D100F0C2FB1C
:105A40004D494E4800F094FB47480088C8284DDC7B
:105A500049480078F0B34948007801284CD100202B
:105A60004149088043480078401C42490870424838
:105A70000078401E4749087008460078022801DD7A
:105A8000022008704348007820B1012803D0022882
:105A90002BD108E029E0394840783F4908700120BF
:105AA0003C49087021E000203C4908700DE0334972
:105AB0003A480078401C085C3749384A12788854C4
:105AC00036480078401C3549087034480078022870
:105AD000EDDB00E010E0002023490880012025498B
